:020000040040BA
:100000002834002001144000FF134000FF1340007B
:10001000FF134000FF134000FF13400000000000EA
:10002000000000000000000000000000B10E4000D1
:10003000FF13400000000000E50E4000350F4000B7
:10004000FF134000FF134000FF134000FF13400068
:10005000FF134000FF134000FF134000FF13400058
:10006000FF134000FF13400000000000950C40000B
:10007000A90C4000FF134000FF134000FF13400095
:10008000FF134000FF134000FF134000FF13400028
:10009000FF134000FF134000FF134000FF13400018
:1000A00091034000FF134000FF134000FF13400086
:1000B000FF134000150A4000FF134000000000003D
:1000C0000000000000000000000000000000000030
:1000D0000000000000000000000000000000000020
:1000E0000000000000000000000000000000000010
:1000F000000000000000000000000000FF134000AE
:10010000FF134000FF13400000000000000000004B
:1001100000000000000000000000000000000000DF
:1001200000000000000000000000000000000000CF
:1001300000000000000000000000000000000000BF
:10014000000000000000000010B5054C237833B912
:10015000044B13B10448AFF300800123237010BD9A
:100160006C02002000000000A46E40000C4B43B164
:100170000C480D4910B5AFF300800C48036823B953
:1001800010BD0A48036833B97047094B002BF7D0FC
:10019000BDE810401847064B002BF5D0184700BFAC
:1001A00000000000A46E400070020020A46E400019
:1001B0000000000000000000F8B5154B5B6D40F634
:1001C000E44000FB03F0000B124B1860124CE56D8D
:1001D00007EE900AF8EE677A17EE900A0F4B9847F1
:1001E00009A3D3E900230E4EB04706460F46284622
:1001F0000C4B984702460B46304639460A4DA847F5
:100200000A4B98476065F8BD0000000000C8A9408F
:1002100000800340AC030020000001408D614000DD
:10022000896440004961400035624000E567400054
:1002300008B5014CA047FDE7F507400010B50320C5
:100240000E4B9847002103200D4B984703200D4B80
:10025000984717200C4CA0471820A0470B4B4FF095
:100260008072C3F88020BFF34F8FBFF36F8FC3F846
:100270008021002183F818131A6010BDD1134000AB
:1002800049134000BD134000F512400000E100E0BA
:100290002DE9F04383B02D4E2D4931602D4B4FF4A5
:1002A00000021A66C3F890205A655A62C3F880208B
:1002B000186F10431867586F20F4000058675A6091
:1002C000254D264FDFF8C09000912B463A46D9F8CD
:1002D0000000234CA04780462A68224C42F41C228E
:1002E00001212046204B984733683A68B3FBF2F36C
:1002F000D9F80020B3FBF2F307EE903AF8EE677AF4
:10030000BCEEE77A84ED177AB6EE007A67EE877A6C
:10031000FCEEE77AC4ED157A1448DFF87090C84710
:1003200039681348C84731681248C84729681248D5
:10033000C8475FFA88F11148C8471148C8470121EA
:100340002046104B984703B0BDE8F083A803002077
:1003500000002707000E0E409C0200208C020020A7
:10036000EF0C400000000140BD0C4000E46840007C
:10037000F8684000046940001069400020694000AE
:100380002C694000D70C400088000020C93740008D
:10039000F8B52DED028B364C01212046354B9847A0
:1003A000354A13680133136007EE903AF8EE677A26
:1003B000324B93ED007AB8EE477A87EE878A304B5E
:1003C00083ED008A2F4B18682F4B98472F4D24A39D
:1003D000D3E90023A84706460F4618EE100A2C4B17
:1003E000984702460B4630463946A847294B98475E
:1003F0001DA3D3E90023A8470022274B274DA84778
:10040000274B984707EE100A264B1860D4ED177A51
:10041000F8EE677A67EE877AF7EE006A77EEE67AAB
:10042000FCEEE77AC4ED157A1F4B1B78022B02D93C
:10043000BDEC028BF8BD164B984702460B461B4895
:100440001B4CA0470A4DE96D1A48A047696D1A4830
:10045000A0471A48A047144A137801331370E7E7FE
:10046000182D4454FB2119409A9999999999D93F8B
:1004700000000140E70C40009002002088000020AE
:10048000980200208C000020496140003562400045
:100490008D614000A91640000000E03FD15E4000A1
:1004A000256840009402002088020020C4684000B3
:1004B000C9374000CC684000D8684000F46840006C
:1004C00030B587B0134B9847134C236C23F40013BB
:1004D00023646846114B984769462046104B98475D
:1004E00002232361636823F08F0343F005036360F5
:1004F00001230C4A194620460B4DA84700212046EF
:100500000A4B9847636813F0800F01D108222260DC
:1005100007B030BD550A4000008003401509400077
:100520003D094000B9014000E5094000C50940000F
:1005300008B5044B9847044B9847044B9847044B25
:10054000984708BD450740003D024000C1044000F7
:1005500091024000F0B583B004460E46002301939B
:10056000344B984216D0344B98421DD0334B9842AE
:1005700024D0334B9C422BD0324B9C4232D0324B56
:100580009C4239D0314B9C4240D0314B9C4247D0A9
:1005900003B0F0BD1F462F4D01A93846A8470028DB
:1005A000FAD1019B3370E4E71F462A4D01A9384672
:1005B000A8470028FAD1019B3370DDE71F46254D7F
:1005C00001A93846A8470028FAD1019B3370D6E725
:1005D0001F46204D01A93846A8470028FAD1019BA3
:1005E0003370CFE71F461B4D01A93846A8470028A6
:1005F000FAD1019B3370C8E71D46164C01A9284665
:10060000A0470028FAD1019B3370C1E71D46114C69
:1006100001A92846A0470028FAD1019B3370B7E70B
:100620001D460C4C01A92846A0470028FAD1019B81
:100630003370ADE700C200400002024000420240B9
:100640000082014000C201400082004000020440DC
:1006500000420340550E400070B50C46304B9842A6
:1006600016D0304B98421CD02F4B984222D02F4BA3
:10067000984228D02E4B98422ED02E4B984234D000
:100680002D4B98423AD02D4B984240D0002070BD5F
:100690001E462B4D21463046A8470028FAD101209E
:1006A00070BD1E46264D21463046A8470028FAD187
:1006B000012070BD1E46224D21463046A847002825
:1006C000FAD1012070BD1E461D4D21463046A84777
:1006D0000028FAD1012070BD1E46194D2146304632
:1006E000A8470028FAD1012070BD1E46144D2146AE
:1006F0003046A8470028FAD1012070BD1E46104D93
:1007000021463046A8470028FAD1012070BD1E4678
:100710000B4D21463046A8470028FAD1012070BD74
:1007200000C200400002024000420240008201403C
:1007300000C2014000820040000204400042034029
:10074000410E400070B586B007201A4B98471A4DED
:100750001A4B1D601A4A1B4B1A601B4A1B4B1A602E
:100760004FF4E1330093C02301934FF400630293ED
:10077000002403940494164E3046164B98470121EA
:100780003046154B9847154A69462846144B9847FA
:100790002846144B98472846134B9847134E336806
:1007A00021469868124DA847336821465868A847E3
:1007B00006B070BDF512400000420340C0030020A7
:1007C00059064000BC03002055054000B803002036
:1007D00000400340AD0A4000390C400000002707EC
:1007E000E10D4000350E40003B0E40009C00002013
:1007F0004938400030B583B001AA69461648174B06
:100800009847174B1B685868164B98479DF800305F
:10081000412B05D0432B12D01348144B984702E0CC
:10082000134B019A5A65124DE96D12480F4CA047BF
:10083000696D1148A0471148A04703B030BD0C4C6A
:10084000012120460E4B9847019BE365012120467C
:100850000C4B9847E7E700BF40694000193840005B
:100860009C000020512B400048694000C9374000DF
:1008700000000140CC684000D8684000F4684000A7
:10088000DF0C4000D70C40002DE9F04180B90C4648
:100890009046002A0FDD8F18084E094D306821461A
:1008A0002B6898470134BC42F8D14046BDE8F0813E
:1008B0004FF0FF38F9E78046F7E700BFC00300209C
:1008C000B80300200138022815D82DE9F0410E4662
:1008D00014469AB10D46DFF838800C4FD8F8000066
:1008E00015F8011B3B68984700280ADBA81B013C50
:1008F000F4D1BDE8F0814FF0FF3070471046BDE8FD
:10090000F0814FF0FF30BDE8F08100BFBC03002054
:10091000C003002000230360064A4260064A82604A
:100920004FF48022C2600222027442748374C37442
:100930000375704700002707808D5B00036B13F081
:10094000807301D01920704730B4012202608A7C84
:10095000002A18BF4FF000430A7C120602F07062B2
:100960004C7C240704F040542243CC6822438C681A
:1009700065004C68B4FBF5F4013C2402A4B22243A8
:1009800013434360CB7C002B14BF4FF080730023D4
:100990000A7D002A14BF4FF480120022134303641F
:1009A000036C0A6813430364054B03F160010022E2
:1009B00043F8042F8B42FBD1002030BC704700BFAE
:1009C000C0030020036C194301647047B1F1FF3F7D
:1009D0000EBF4FF0FF33024B53F821304362704794
:1009E0006069400010B5084C44F82120074A4FF0D8
:1009F0000054C2F880411B01DBB282F81D33146041
:100A0000034B984710BD00BFC403002000E100E085
:100A1000CD09400070B582B00B4B1B6B01930B4EA0
:100A2000341F0B4D5C3602E00435B44209D0019A04
:100A300054F8043F1A42F7D02B68002BF4D09847A3
:100A4000F2E702B070BD00BF008003406069400063
:100A5000C403002000B583B01D20114B9847114BF3
:100A60001B78FF2B1AD0EFF31083B3FA83F35B09E3
:100A7000019372B6BFF35F8F00220B4B1A7001997E
:100A8000084A13780133137029B10122064B1A70FA
:100A9000BFF35F8F62B603B05DF804FBFEE700BFF3
:100AA000F5124000B003002094000020544B1B7846
:100AB000FF2B34D000B583B0EFF31083B3FA83F388
:100AC0005B09019372B6BFF35F8F00224D4B1A7022
:100AD00001994B4A13780133137029B10122494B14
:100AE0001A70BFF35F8F62B6474A904218D0474AE8
:100AF000904223D0464A90422ED0464A904239D066
:100B0000454A904244D0454A90424FD0444A904290
:100B10005AD0444A904265D003B05DF804FBFEE72A
:100B20000720414B98470720404B9847002107205A
:100B30003F4B984707203F4B9847EDE716203A4B2D
:100B400098470720394B984700210720384B984792
:100B50000720384B9847DFE71520334B984707208D
:100B6000324B984700210720314B98470720314BE3
:100B70009847D1E714202C4B984707202B4B9847D8
:100B8000002107202A4B984707202A4B9847C3E7A4
:100B90001320254B98470620244B98470021062018
:100BA000234B98470620234B9847B5E70E201E4B52
:100BB000984706201D4B9847002106201C4B98475C
:100BC00006201C4B9847A7E70920174B984706209B
:100BD000164B984700210620154B98470620154BC9
:100BE000984799E70820104B984706200F4B9847E5
:100BF000002106200E4B984706200E4B98478BE7A6
:100C0000B003002094000020004003400000044096
:100C10000080004000C001400080014000400240D0
:100C20000000024000C00040F5124000D113400017
:100C300081134000BD13400001607047C06C7047D5
:100C4000806C70472DE9F041044688460E4B98476A
:100C5000054620460D4B9847054013D00C4C04F137
:100C6000600603E0B4420DD010345DB12068404509
:100C7000F8D161682942F5D0E3689847636825EAAE
:100C80000305EFE7BDE8F0813D0C4000410C40005A
:100C9000A002002008B50B210148024B984708BD6F
:100CA000000E0E40450C400008B50C210148024BD7
:100CB000984708BD00100E40450C400010B4890153
:100CC0004318022444504FF0FF319962196A5A6068
:100CD0005DF8044B70478901052343507047890133
:100CE00002234350704700EB8111086A7047F0B44B
:100CF00086B00224019408240294202403948024C2
:100D000004940A9CE40B0594B0EB510F14D84C0CDE
:100D1000A04217D2012501AF57F82540B1FBF4F4EA
:100D2000260C84420AD386420DD90135052DF3D114
:100D3000002006B0F0BC70470020FAE70020F8E77A
:100D40000120F6E700252AB106A901EB850151F83B
:100D5000141C1160002BF3D01D600120E9E710B4D2
:100D60000B01934214D9C9004B0803EBC202B2FB3A
:100D7000F1F2D3085C1E4FF6FE718C4201D90120BE
:100D800017E0416841F4002141600CE0012010E0CF
:100D9000590801EBC202B2FBF3F2D3085C1E4FF616
:100DA000FE718C42F2D8120402F4E0221A4302626D
:100DB00000205DF8044B7047084BC0F8E430002376
:100DC00043604362836288230360242303604FF4FB
:100DD000807303604FF40023036070470041535554
:100DE00070B505460C4616460F4B984700220F4B30
:100DF0001A60A4B13246216828460D4B9847024636
:100E000078B96368A1680B4321690B43E1680B4320
:100E100006490B6069680B436B60104670BD012288
:100E2000FBE70122F9E700BFB90D400010030020E5
:100E30005F0D40004023036070471023036070473C
:100E4000436913F0020F1DBFC1F30801C161002007
:100E500001207047436913F0010F05D08369C3F384
:100E600008030B60002070470120704743685A68F0
:100E70004A6042688A605A689160596041600861BE
:100E80000368013303607047436882689A6083682F
:100E900042685A6003695A68904204BF82685A6087
:100EA000002202611A68013A1A601868704700004F
:100EB000054B19680868B0E8F04F80F309884FF0D7
:100EC000000080F31188704714030020EFF31180B5
:100ED0004FF0A00181F311887047002080F3118842
:100EE00070470000EFF30980114B1A681EF0100FD5
:100EF00008BF20ED108A20E9F04F10602DE908406E
:100F00004FF0A00080F3118800F0BEF84FF0000011
:100F100080F31188BDE8084019680868B0E8F04F10
:100F20001EF0100F08BFB0EC108A80F309887047DC
:100F30001403002008B54FF08052054B1A60054B92
:100F40009847054B98470020044B984708BD00BFC1
:100F500004ED00E0CD0E4000610F4000DD0E4000CA
:100F60003D4B1B68002B6FD12DE9F0413B4B1A68BC
:100F700001321A601B68ABB9394B1B681B68002B28
:100F800028D1374B1968374A106818601160364904
:100F90000A6801320A601B681B68FBB94FF0FF3218
:100FA000324B1A602D4B1A68304B1B689A4250D353
:100FB0002B4B1B681B68CBB1294B1B68DB68DC68BB
:100FC0006368264A1268934216D8294E294FDFF8E3
:100FD000B4802FE0284B984700BFFDE7204B1B68EB
:100FE000DB68DB685A68214B1A60DBE74FF0FF32A1
:100FF0001E4B1A60BDE8F0811C4A1360BDE8F08109
:10100000E06A3B68984288BF386000EB8000294660
:1010100008EB8000194B9847114B1B681B68002B8D
:10102000E4D00F4B1B68DB68DC6863680B4A12680E
:101030009342E1D8251D2846B047A36A002BDFD094
:1010400004F11800B047DBE70D4A13680133136061
:101050007047BDE8F08100BF88030020980300209E
:10106000180300201C03002094030020900000209F
:10107000890E40008C030020CD0E40006D0E400014
:101080008403002020030020214B1B68EBB910B51E
:10109000204B1B6803EB83039B001F4AD358C3B943
:1010A0001C4B1B686BB11B4A1B491368013B136047
:1010B000136803EB830351F8233053B91368002BF3
:1010C000F3D1164B984700BFFDE70122144B1A607D
:1010D0007047104B1B68104A9900C81802EB80003B
:1010E000446864684460194402460832944209D056
:1010F00003EB8303084A02EB83035B68DA68094B5E
:101100001A6010BD6068044A02EB81025060EFE78C
:10111000880300208C03002020030020CD0E400017
:10112000900300201403002010B5114B98474FF492
:101130000042104B5A600B200F4CA0470C20A047D8
:101140000E4B40221A61C3F8A0201A634FF0C05220
:101150001A66C3F890205A655A62C3F88020196F46
:1011600011431967596F21F0C05159675A6010BD7A
:101170008111400050140E40F5124000000E0E4048
:1011800010B5A2B01848194B98470020184B984743
:10119000184CA0470028FCD0174B9847174A184B0B
:1011A0009A62184CA0470028FCD00020164B9847A4
:1011B000164B984716480D4B9847164B1A68164B16
:1011C0001344164A934201D922B010BD2023009344
:1011D00002AB0F220E211248124CA047BDF8481056
:1011E0001148124B9847EFE7000E2707C51540003E
:1011F00095124000B9124000D9124000013F4D0E37
:1012000000040E40E512400031124000DD144000A1
:101210000000270798000020C0D3BDF980C3C90192
:10122000000A0E400100002010140E40E51340009B
:10123000174A136B23F0700318431063936E13F077
:10124000080F0AD14FF4006311498A6E12F0080F9B
:1012500003D1013BF9D1012070470D4A136B23F0F4
:10126000030343F002031363936E13F0080F0AD1D4
:101270004FF4006306498A6E12F0080F05D1013B56
:10128000F9D101207047002070470020704700BF4F
:1012900000040E40012803D0054A064B1A6070472F
:1012A000044A936843F0254343F480139360F3E7C3
:1012B000080000A510140E40054B5B6913F0800F69
:1012C0001DBF044B986EC0F3C0100020704700BFD4
:1012D00010140E4000040E400022014B9A62704729
:1012E00000040E40024B986E00F00200704700BFF1
:1012F00000040E4032281ED81F280CD8114B9A69C2
:1013000001238340934318D0012303FA00F00D4BCF
:1013100018610020704720380A4BD3F808210123B8
:10132000834093430BD0012303FA00F0054BC3F82D
:101330000001002070470120704700207047002006
:10134000704700BF00040E400C4B00F1100243F840
:1013500022109A6E4FF4807303FA00F0024209D112
:101360004FF4006305498A6E024205D1013BFAD170
:1013700001207047002070470020704700040E4095
:1013800041F004010C4B00F1100243F822109A6E58
:101390004FF4807303FA00F0024209D14FF4006366
:1013A00005498A6E024205D1013BFAD101207047FE
:1013B000002070470020704700040E404FF48073F7
:1013C00003FA00F0014B1860704700BF00040E40A4
:1013D0004FF4807303FA00F0014B5860704700BF70
:1013E00000040E40C369490201F4F05141F0B441D8
:1013F00041F4807123F4F0531943C1617047FEE753
:1014000000B583B02A4B2B4A9A4210D02A4B284A67
:101410009A420CD2013B9B1A23F00303043313447A
:10142000244951F8040B42F8040B9A42F9D1234B9A
:10143000234A9A420AD2013B9B1A23F00303043346
:101440001344002142F8041B9342FBD11D4A22F0B1
:101450007F011D4B9960EFF31083B3FA83F35B09AF
:10146000019372B6BFF35F8F0021184B197001987A
:1014700017490B6843F470030B60BFF34F8FBFF342
:101480006F8F28B10121114B1970BFF35F8F62B6C6
:1014900002F16042B2F5203F04D20B4A936843F058
:1014A000005393600B4B98470B4B9847FEE700BFE8
:1014B00000000020A46E40006C02002028040020E0
:1014C0006C0200200000400000ED00E094000020CD
:1014D00088ED00E0412D400089164000314B1B6B28
:1014E00003F00303012B1DD083B1022B36D02D4B0B
:1014F0001B6B03F07003702B4BD02A4B1A6B2A49DD
:10150000C2F302120B68D3400B607047274B5B6934
:1015100013F0800F14BF4FF400424FF4FA42224BF5
:101520001A60E4E71F4B1B6A13F0807F03D0204A48
:101530001D4B1A60DBE71F4A1B4B1A60194B1B6AD5
:1015400003F07003102B05D0202BD0D11A4A164B74
:101550001A60CCE7194A144B1A60C8E7134B5B6951
:1015600013F0800F14BF4FF400424FF4FA420E4BB9
:101570001A600C4B1B6B03F00303022BB7D1094B12
:101580009A6A0949C2F30C420B6802FB03330B60F1
:10159000ADE7054A13680A49A1FB03135B08136012
:1015A000704700BF00040E409800002010140E4049
:1015B000001BB70000127A0000366E010024F40010
:1015C000ABAAAAAA124B984211D9124B984213D92E
:1015D000114B984214D9114B984215D9104B98428F
:1015E00094BF4FF004220F4A0F4B1A6070474FF020
:1015F00080620D4B1A6070470C4A0B4B1A607047A3
:101600000B4A094B1A6070470A4A074B1A60704729
:10161000FF2C3101FF596202FF869303FFB3C4041C
:10162000FFE0F50500050004000A0E40000100047B
:1016300000020004000300040A4B1B6853B1094B6D
:101640001B681A180849914208DB1046054A1060C9
:1016500018467047054A034B1A60F0E74FF0FF3019
:10166000704700BF9C030020FC7F0220283400202C
:101670004FF0FF3070474FF400534B60002070472D
:10168000012070470020704708B5044B9847044B71
:101690009847044B9847002008BD00BF291140001F
:1016A000310540003102400030B51F4A21F00043AF
:1016B000934287B01BDD1D4A934205DD02460B466F
:1016C00004F004FC07B030BD02AA00F031F800F0CD
:1016D00003000128DDE904231AD002280FD0E0B16D
:1016E000DDE9020100F048FA01F10041EAE70023D8
:1016F00000930022002300F0ABFF07B030BD0124AF
:10170000DDE90201009400F0A3FF01F10041D9E7F7
:10171000DDE9020100F030FAD4E70124DDE902013D
:10172000009400F095FFCDE7FB21E93FFFFFEF7F3D
:101730002DE9F04F9A4E21F00047B74291B040F3A7
:101740008E809246974A97420C4626DC00298AA34F
:10175000D3E9002340F3B48104F0B8FB924B9F42DD
:1017600004460D4600F0908085A3D3E9002304F0E1
:10177000ADFB02460B46CAE900232046294604F089
:10178000A5FB7FA3D3E9002304F0A0FB0125CAE950
:101790000201284611B0BDE8F08F844A974240F319
:1017A0009080834A974265DC3D15A5F21645A7EB6C
:1017B000055319461F46064604F0ECFF04F0D4FC1E
:1017C0008046894602460B4630463946CDE90A89AD
:1017D00004F07CFB0022774B04F02CFD8946804608
:1017E00004F0D8FF04F0C0FC02460B4606460F4644
:1017F00040464946CDE90C6704F068FB00226D4B7A
:1018000004F018FD00220023CDE90E0104F07AFF58
:10181000002800F07381002330463946002204F08E
:1018200071FF002814BF01230223634A01920221A1
:101830002A4600910AA8514600F0C2FA002C05463B
:1018400014DADAF80420DAF80C3002F1004203F17D
:1018500000434542CAF80420CAF80C3006E0C2E949
:10186000000100250024C2E902450025284611B0E8
:10187000BDE8F08F02460B4604F028FB0025CAE9BC
:101880000201CAE90001F1E73FA3D3E9002304F014
:101890001DFB3FA3D3E900230D46044604F016FBCD
:1018A00002460B46CAE900232946204604F00EFBF7
:1018B00037A3D3E9002304F009FB0125CAE902019B
:1018C000D4E700F07BFF34A3D3E9002380468946A8
:1018D00004F0B0FC0022394B04F0FAFA04F05AFF8D
:1018E000054604F041FC24A3D3E90023CDE904011B
:1018F00004F0A0FC02460B464046494604F0E6FAD6
:101900001FA3D3E9002380468946DDE9040104F0E2
:1019100091FC1F2DCDE9020154DC294B6A1E53F8BE
:1019200022309F424ED002460B464046494604F0C4
:10193000CDFA02460B46CAE9002383460E465A46B4
:1019400033464046494604F0C1FADDE9022304F07B
:10195000BDFA002C02460B46CAE9022386DA5B4632
:1019600006F1004601F100418AE84800CAF80C106F
:10197000CAF808006D4279E700004054FB21F93FA6
:101980003163621A61B4D03D0000601A61B4D03D89
:101990007370032E8A19A33B83C8C96D305FE43F7F
:1019A000FB21E93F7BD90240FB21F93FFB21394173
:1019B000FFFFEF7F00007041406A40000000E03F01
:1019C000C0694000DDE902234046494604F07EFA42
:1019D0003A15C1F30A53D31A102B83460E460992C7
:1019E000CAE90001ABDD58A3D3E90023DDE9040116
:1019F00004F020FC06460F4602460B464046494688
:101A000004F064FACDE9060102460B464046494619
:101A100004F05CFA32463B4604F058FA4CA3D3E992
:101A2000002306460F46DDE9040104F003FC3246BC
:101A30003B4604F04BFADDE90689CDE90201024696
:101A40000B464046494604F041FA0B46C1F30A579B
:101A50000E460999CF1B0246312F8346CAE900235F
:101A60006CDD3DA3D3E90023DDE9040104F0E2FBD2
:101A700006460F4602460B4640464946CDE90689D2
:101A800004F024FA02460B4680468946DDE9060149
:101A900004F01CFA32463B4604F018FA30A3D3E9AE
:101AA000002306460F46DDE9040104F0C3FB32467D
:101AB0003B4604F00BFA02460B46CDE9022334E71D
:101AC00004F006FA2A4B9F4204460D4618D026A37E
:101AD000D3E9002304F0FCF902460B46CAE90023CF
:101AE0002946204604F0F2F91FA3D3E9002304F0AD
:101AF000EFF94FF0FF35CAE90201B7E6032394E698
:101B000011A3D3E9002304F0E3F911A3D3E90023DF
:101B10000D46044604F0DCF902460B46CAE90023F0
:101B20002946204604F0D2F909A3D3E9002304F0A2
:101B3000CFF94FF0FF35CAE9020197E6DDE90689E2
:101B4000FDE600BFAFF300800000601A61B4D03D35
:101B50007370032E8A19A33B0000002E8A19A33B41
:101B6000C14920259A837B393163621A61B4D03D23
:101B7000FB21F93F000000002DE9F04F21F0004665
:101B8000B6F1795F85B00C4692469B4605466BDA06
:101B900004F000FE002800F0E8802A46234628468C
:101BA000214604F047FB74A3D3E90023804689460D
:101BB00004F040FB72A3D3E9002304F089F9424604
:101BC0004B4604F037FB70A3D3E9002304F07EF901
:101BD00042464B4604F02EFB6DA3D3E9002304F0EC
:101BE00077F942464B4604F025FB6BA3D3E900236B
:101BF00004F06CF942464B4604F01CFB68A3D3E9A1
:101C0000002304F065F942464B4604F013FBCDE98E
:101C100000010022644B4046494604F00BFBDDE91D
:101C2000002306460F464046494604F003FB524651
:101C3000804689465B462846214604F0FBFA024668
:101C40000B464046494604F041F902460B463046F1
:101C5000394604F03BF902460B460020534904F094
:101C600035F905B0BDE8F08F02460B4604F0E2FA04
:101C700041A3D3E900238046894604F0DBFA40A360
:101C8000D3E9002304F024F942464B4604F0D2FA8B
:101C90003DA3D3E9002304F019F942464B4604F072
:101CA000C9FA3BA3D3E9002304F012F942464B469C
:101CB00004F0C0FA38A3D3E9002304F007F9424640
:101CC0004B4604F0B7FA36A3D3E9002304F000F939
:101CD0004B46424604F0AEFA354B9E42CDE9000138
:101CE00097DD344B9E424FF0000238DCA6F500131E
:101CF00000202E4916461F4604F0E8F8CDE90201FF
:101D00000022294B4046494604F094FA32463B46AD
:101D100004F0DCF8DDE9002306460F46404649465C
:101D200004F088FA5246804689465B46284621469A
:101D300004F080FA02460B464046494604F0C6F8D5
:101D400002460B463046394604F0C0F802460B46C0
:101D5000DDE9020104F0BAF805B0BDE8F08F164BDA
:101D6000164FCDE902230026CAE71049002005B02E
:101D7000BDE8F08FAFF30080D43888BEE9FAA8BD83
:101D8000C4B1B4BD9EEE213EAD529C804F7E923ECA
:101D90009015CB19A001FA3E7751C1166CC1563F80
:101DA0004C5555555555A53F0000E03F0000F03F0C
:101DB0003233D33F0000E93F0000E73F0000D23F4D
:101DC0002DE9F04FADF5197D9C4CA29E9C4D54F829
:101DD000264005942646D41E85FB0475E417C4EB03
:101DE000A50424EAE4741D460893631CA3EB830353
:101DF000013D02EBC30304932B4609940295651B36
:101E0000F418039006911AD42C4401340DF178088B
:101E100000260027DDF88C9208E059F8250004F030
:101E2000A3F90135A542E8E9020108D0002DF4DA52
:101E3000013530463946A542E8E90201F6D1059B55
:101E4000002B2EDB089B4FEAC309039BA9F108086E
:101E5000984420AB9944059B70AA02EBC30B0DF587
:101E6000DC7A029B002BC0F20F83039B4D46A3F14B
:101E700008040026002775E90223F4E9020104F0B2
:101E8000D9F902460B463046394604F021F844455C
:101E900006460F46EFD1EAE90267DA4509F108097B
:101EA000DFD10598089A009000F18043013B9B0028
:101EB0000CAC191F234402F100520B93039B013A0F
:101EC00021440A9103EBC20B009A98A901EBC203CB
:101ED000002A53E9284513462BDD01EBC308A8F17E
:101EE000A8080DF12C090DF5DC7A0022554B20468F
:101EF000294604F09FF904F04DFC04F035F9002266
:101F0000514B06460F4604F095F902460B46204613
:101F1000294603F0DBFF04F03DFC78E8022349F892
:101F2000040F3946304603F0D3FFD04504460D4632
:101F3000DBD1DDF81090204629464A4600F0D0FC5F
:101F400000224FF07F5304460D4604F073F900F071
:101F50003BFC00223D4B04F06DF902460B46204647
:101F6000294603F0B3FF0D46044604F013FC8046F7
:101F700004F0FAF80B4602462946204603F0A6FF75
:101F80004B46002B06460F4640F3F780009A0CA9FB
:101F9000013AC9F1180351F8225045FA03F101FA48
:101FA00003F30CA8EB1A40F82230C9F11705884456
:101FB00043FA05F5002D63DD009B002B08F10108B5
:101FC00040F381820C9C002C00F018830120002338
:101FD0000CAAC4F1807442F82340009A824219DDB1
:101FE0000CAA0CAC52F820106FF07F42511A44F842
:101FF00020100099023399420CDD1046009A0CA97A
:1020000001EB830301EB82011A68821A43F8042B67
:102010008B42F9D1049B002B1ADD049B012B4FF05E
:10202000010440F05882009B5A1E0CAB0CA953F8D7
:102030002230C3F3160341F8223058E2886B400087
:10204000ABAAAA2A0000703E0000704100002040A8
:10205000022D15D132463B460020974903F036FF4A
:1020600006460F46049A9449002000F039FC0246C7
:102070000B463046394603F029FF022506460F4637
:10208000002200233046394604F03CFB002800F0D3
:102090005282009A059B501E83420FDC02F180435E
:1020A000013B0CAA0B9C02EB8303002253F804199A
:1020B000A34242EA0102F9D1002A6FD1059B0CAA82
:1020C000013B52F82330002B40F033820A9A01235F
:1020D00052F8041901330029FAD0009AD31802F1FA
:1020E000010A9A4507933DDC009B0899099A0B4425
:1020F00007990AEB0208994620AB08F1804803EBE8
:10210000C9098B18A39A08F1FF3802EB880870AA56
:1021100002EBCA0AA39A02EB8303009358F8040F58
:1021200004F022F8029B002BE9E802011DDB039B6F
:102130004D46A3F108040026002775E90223F4E9BF
:10214000020104F077F802460B463046394603F0A8
:10215000BFFE5C4506460F46EFD1009B9845EAE876
:102160000267DBD1079B0093AEE6009B00260027A9
:102170009845EAE80267D1D1F4E706D1009B0CAAA2
:10218000013B52F82350ED1514E700224B4B04F0AD
:10219000D7FA002840F08281054671E70CA9029524
:1021A00051F820300499CDF81C801839024600906F
:1021B00004916BB900F18043013B0CA800EB830351
:1021C00053F80409013A18390028F9D00092049113
:1021D000049A3949002000F083FB009B002B044641
:1021E0000D46C0F20382DA0070A901EB020B0492E3
:1021F0000CAA02EB8306DFF8C8900BF1080704363F
:102200004FF0000856F8040D03F0AEFF22462B46AF
:1022100004F010F84B4667E9020142462046294681
:1022200004F008F80CAB9E4204460D46EAD10DF5C9
:10223000907ACDF80CA0DDF814A04FF00009BAF1A7
:10224000000FC0F23D81DFF87C805D4618A1D1E926
:10225000000100260027002403E04C4510DCF8E8CC
:102260000201F5E8022303F0E5FF02460B46304683
:10227000394603F02DFE0134A24506460F46ECDA3E
:10228000039B03EBC903ABF1080BC3E900676EAB1B
:102290005B4509F10109D2D1A29BDDF80CA0032B0B
:1022A00000F28B80DFE813F0D10090009000100066
:1022B00000000040FB21F93F0000F03F0000E03F3C
:1022C0000000703E506B4000009B002B40F3A48147
:1022D000049B0AEB0308D8E90067D34658E9029A41
:1022E00032463B464846514603F0F2FD04460D4651
:1022F00002460B464846514603F0E8FD32463B464F
:1023000003F0E6FDC8E9000168E90245C345264639
:102310002F46E3D1009B012BDA4640F37D81049BDD
:102320005B44D3E90067984699460DF5947B59E9DB
:1023300002343246184621463B46CDE9000103F0FF
:10234000C7FD04460D4602460B46DDE9000103F0D9
:10235000BDFD32463B4603F0BBFDC9E9000169E91A
:102360000245CB4526462F46E1D1002308F1080857
:102370001D464CAC1846294678E9022303F0A8FD17
:10238000444503460D46F5D1029A002A00F020810B
:10239000DAF80440DAF80C20069FDAF80010DAF8D0
:1023A00008003B6105F1004504F1004402F10042E0
:1023B0007D617C60FA603960B860079B03F00700BC
:1023C0000DF5197DBDE8F08F049C002608345444B7
:1023D00033463046194674E9022303F079FD54452B
:1023E00006460B46F5D1029A30461946002A00F0FF
:1023F000DA80069803F10044324644600660DAE968
:10240000000103F063FD0B460099002902460EDD32
:10241000012410461946FAE9022303F059FD0B4640
:1024200000990134A1420246F3DA029909B103F19D
:1024300000431946069B1046C3E90201079B03F0BF
:1024400007000DF5197DBDE8F08F049C00220834CB
:10245000544413461046194674E9022303F038FD2C
:10246000A24502460B46F5D1029909B103F100439A
:102470001946069B1046C3E90001079B03F00700BD
:102480000DF5197DBDE8F08F00260027EAE9026707
:10249000DA4509F108097FF4E4AC02E5009B002B62
:1024A00008F10108C8BF02253FF78CAD32463B4614
:1024B0000020634903F00AFD022506460F46DFE5CA
:1024C00000260027DCE6049B002B26DD0024049B6D
:1024D000012B3FF4A8AD022B09D1009B5A1E0CAB77
:1024E0000CA953F82230C3F3150341F82230022D12
:1024F0007FF4C6AD32463B460020514903F0E6FC6E
:1025000006460F46002C3FF4BBADABE50099013306
:10251000994278D1049B002BD9DC022D7FF4B0AD19
:1025200032463B460020464903F0D0FC06460F46A3
:10253000A6E50123D1E53946049F02957A4230464B
:10254000CDF81C8000F0CCF900223E4B04460D462D
:1025500004F0F6F8002862D000223B4B20462946C2
:1025600003F068FE04F016F9064603F0FDFD0022B4
:10257000344B03F05FFE02460B462046294603F02B
:10258000A5FC04F007F900990B4601331A460093A5
:102590003B46183304930B460CA941F8230013461D
:1025A00041F8236014E6069B3246C3E900010B465E
:1025B000DAE9000103F08AFC0B4600990029024683
:1025C0003FF726AF1946069B1046C3E9020135E7DF
:1025D00018462946DAE90023DAE90245069FC7E9E9
:1025E0000401C7E90023C7E90245E6E6A29B032BE5
:1025F0003FF6E3AEDFE803F0211C1C0E009B012B2D
:1026000088DD0CAA012352F8044F002C3FF47EAF62
:10261000581CDDE40DF5907A00231D46B4E62946EA
:10262000204604F0B7F8009A0CA941F82200CFE543
:10263000002633460DF5907AD5E60022134613E7BF
:102640000000F03F000070410000703E00000000FC
:102650002DE9F04F21F00046B6F1795F85B00C46C8
:1026600090469946054604DA04F094F8002800F0F4
:1026700085802A4623462846214603F0DBFD064690
:102680000F4602460B462846214603F0D3FD3EA3E3
:10269000D3E9002382468B463046394603F0CAFD13
:1026A0003BA3D3E9002303F011FC32463B4603F081
:1026B000C1FD39A3D3E9002303F00AFC32463B46AF
:1026C00003F0B8FD36A3D3E9002303F0FFFB324645
:1026D0003B4603F0AFFD34A3D3E9002303F0F8FB3E
:1026E0000E9BCDE900019BB30022334B4046494687
:1026F00003F0A0FDDDE90023CDE902015046594673
:1027000003F098FD02460B46DDE9020103F0DEFB13
:1027100032463B4603F08EFD42464B4603F0D6FB65
:1027200023A3D3E9002306460F465046594603F03B
:1027300081FD02460B463046394603F0C9FB02468E
:102740000B462846214603F0C1FB05B0BDE8F08FDB
:1027500002460B463046394603F06CFD14A3D3E91C
:10276000002303F0B3FB52465B4603F063FD2A46A9
:10277000234603F0ADFB05B0BDE8F08F28462146A7
:1027800005B0BDE8F08F00BF7CD5CF5A3AD9E53D02
:10279000EB9C2B8AE6E55A3E7DFEB157E31DC73E12
:1027A000D561C119A0012A3FA6F810111111813F6E
:1027B000495555555555C53F0000E03F21F00041B2
:1027C000704700BF00000000C1F30A522DE9F84332
:1027D000A2F2FF36132E0B460D46044688460746E6
:1027E0001DDC002E40DB3C4A42FA06F901EA0902F0
:1027F0000243864618D036A3D3E9002303F068FBD2
:102800000022002303F0A6FF20B1002D42DB28EABE
:10281000090500273C4629462046BDE8F883332EAB
:1028200006DDB6F5806F2FD019462046BDE8F88347
:10283000A2F213424FF0FF3929FA02F910EA090F08
:10284000F2D023A3D3E9002303F042FB00220023AC
:1028500003F080FF0028DDD0002D21DB454627EA6C
:1028600009073C462946D7E719A3D3E9002303F01B
:102870002FFB0022002303F06DFF0028CAD0002D9B
:1028800019DB00273D46C5E702460B4603F020FB57
:102890000446CAE74FF4801343FA06F6B044B6E79D
:1028A000142E10D00123C6F1340603FA06F63719A8
:1028B00028BF9844D2E725F00042084B224318BFB6
:1028C0001D460027A6E705F10108C7E7AFF3008022
:1028D0009C7500883CE4377EFFFF0F000000F0BFCE
:1028E000F8B5C1F30A5604460D460B4617460EBB13
:1028F00021F000430343864625D00022344B03F0E9
:1029000099FC344A974204460D460B462ADBC1F334
:102910000A56363E3E4440F2FE72964228DC002EB5
:1029200012DD23F0FF4323F4E00343EA065520467B
:102930002946F8BD40F2FF729642EBD102460B46A3
:1029400003F0C6FAF8BDF8BD16F1350F1DDA4CF2EA
:1029500050339F4222462B4625DC19A1D1E90001C4
:1029600000F03CF816A3D3E9002303F063FCF8BDA4
:1029700022462B4614A1D1E9000100F02FF812A342
:10298000D3E9002303F056FCF8BD23F0FF4323F402
:10299000E003363643EA06552046294600220E4B10
:1029A00003F048FCF8BD08A1D1E9000100F016F8D9
:1029B00005A3D3E9002303F03DFCF8BDAFF300808D
:1029C00059F3F8C21F6EA5019C7500883CE4377E60
:1029D00000005043B03CFFFF0000903C03F0004378
:1029E00021F0004242EA0301704700BF8A892DE9C5
:1029F000F041054610070C465AD44B68002B05DC05
:102A00000B6C002B02DC0020BDE8F081E66A002E92
:102A1000F9D0002312F480522F682B6033D0606D00
:102A2000A3895A0705D56368C01A636B0BB1236C81
:102A3000C01A00230246E66A216A2846B047431CB2
:102A4000A38906D129681D294BD82B4ACA40D6072D
:102A500047D500226260D9042269226004D5421C55
:102A600001D12B6803B96065616B2F600029CAD062
:102A700004F14403994202D0284600F099F900205D
:102A80006063BDE8F081216A01232846B047411CFC
:102A9000C6D12B68002BC3D01D2B01D0162B01D122
:102AA0002F60B0E7A38943F04003A381BDE8F08124
:102AB0000F69002FA7D093070E6808BF4B690F60FE
:102AC00018BF0023A6EB07088B60B8F1000F9ADD52
:102AD00043463A46216AA66A2846B047002807DCE2
:102AE000A38943F04003A3814FF0FF30BDE8F0819C
:102AF0000744A8EB0008E8E70100402038B50B695F
:102B000005460C46DBB118B183690BB900F072F8C9
:102B10000C4B9C4209D16C68B4F90C307BB1214656
:102B20002846BDE83840FFF761BF074B9C4201D102
:102B3000AC68F1E7054B9C4208BFEC68ECE700206D
:102B400038BD00BFB86B4000D86B4000986B4000A8
:102B5000014620B9044B0549186800F0D3B8044B6E
:102B60001868FFF7CBBF00BFF86B4000FD2A40009C
:102B70009C000020014900F0C5B800BFFD2A4000BC
:102B8000002310B50446036043608360818143667F
:102B9000C281036143618361194608225C3000F001
:102BA000FEF8054B6362054BA362054BE362054BE0
:102BB0002462236310BD00BFB5394000D7394000FF
:102BC0000F3A4000333A400070B54A1E682555431D
:102BD0000E4605F1740100F039F9044640B10021B8
:102BE00080E842000C30A06005F1680200F0D7F8E0
:102BF000204670BD836910B5044633BB8364C3644B
:102C00000365124B124A1B688262984204BF01237B
:102C1000836100F01FF86060204600F01BF8A060A0
:102C2000204600F017F80022E06004216068FFF7FA
:102C3000A7FF01220921A068FFF7A2FF02221221AB
:102C4000E068FFF79DFF0123A36110BDF86B400012
:102C5000752B4000F8B51C4B1E68B369074613B9C5
:102C60003046FFF7C7FF4836B4687368013B03D5A9
:102C7000336833B13668F7E7B4F90C506DB1683496
:102C8000F4E704213846FFF79FFF30600028F1D1B8
:102C90000C233B6004462046F8BD4FF6FF73E381EA
:102CA0000123A38165662560A56065602561656176
:102CB000A5610822294604F15C0000F070F8656304
:102CC000A563A564E564E6E7F86B40002DE9F041F3
:102CD000884600F14804002614B93046BDE8F0816A
:102CE000A5686768013F01D52468F5E7AB89012B2A
:102CF00006D9B5F90E30013302D02846C047064345
:102D00006835EFE72DE9F8438046894600F148042D
:102D1000002614B93046BDE8F883A5686768013F0E
:102D200001D52468F5E7AB89012B07D9B5F90E3039
:102D3000013303D029464046C84706436835EEE7CD
:102D400070B50D4E0D4CA41BA4100025A54209D151
:102D50000B4E0C4C04F096F8A41BA4100025A542C1
:102D600005D170BD56F8253098470135EEE756F885
:102D7000253098470135F2E7906E4000906E400094
:102D8000906E4000946E400010B5431E0A4491427C
:102D900000D110BD11F8014B03F8014FF7E70244D1
:102DA0000346934200D1704703F8011BF9E7000086
:102DB00038B50546002945D051F8043C0C1F002BBE
:102DC000B8BFE41801F0A4FD1F4A1368104633B9D8
:102DD000636014602846BDE8384001F09ABDA34204
:102DE0000CD921686218934204BF1A685B6863605B
:102DF00004BF521822600460ECE713465A680AB117
:102E0000A242FAD919685818A0420BD1206801448F
:102E1000581882421960DDD1106852685A60014426
:102E20001960D7E702D90C232B60D3E7206821185B
:102E30008A4204BF11685268626004BF09182160A9
:102E40005C60C7E738BD00BFA003002070B5CD1C93
:102E500025F0030508350C2D38BF0C25002D06463E
:102E600001DBA94203D90C233360002070BD01F0BF
:102E70004FFD234A1468214691B9224C23681BB99F
:102E8000304600F0B9FC20602946304600F0B4FC22
:102E9000431C26D10C233360304601F03AFDE4E7B1
:102EA0000B685B1B1AD40B2B0FD90B60CD50CC18C1
:102EB000304601F02EFD04F10B00231D20F0070029
:102EC000C31A1BD05A42E25070BD8C420DBF6368DA
:102ED0004B686360136018BF0C46E9E70C4649680D
:102EE000CAE7C41C24F00304A04205D0211A3046CE
:102EF00000F082FC0130CDD02560D9E770BD00BF65
:102F0000A0030020A40300202DE9F04788B0002B87
:102F1000149F1299109DDDF84CA01E4627F0200743
:102F2000BBBF03F100431E4600232D23462F14464A
:102F30000B7004D0452F00D10135022300E003239C
:102F400007AA049206AA03928DE828042246334673
:102F500000F02AFE472F804602D1119BDB0726D5C1
:102F6000462F08EB050911D198F80030302B0AD113
:102F7000002200232046314603F0C4FB18B9C5F1F6
:102F80000105CAF80050DAF8003099440022002305
:102F90002046314603F0B6FB38B93022079B9945ED
:102FA00005D9591C07911A70F8E7CDF81C90079BBA
:102FB000159AA3EB08034046136008B0BDE8F087FC
:102FC000F7B503460029B8BF494203F8022BB4BF46
:102FD0002D222B220929427020DD0DF10702174610
:102FE0000A2691FBF6F506FB15113031092D02F882
:102FF000011C02F1FF34294609DC3031023A04F8A1
:10300000011CBA421C4604D3201A03B0F0BD22466C
:10301000E7E712F8011B03F8011BF2E730221C4618
:10302000114404F8022B5970EEE700002DE9F04F2F
:1030300091B00C461A9F93461E46054601F086FB4A
:1030400003680993184600F0F8FC00230E933B68D0
:103050000A90073323F0070303F1080294F818805D
:10306000D4F800A03A60D3E90023C4E91223D4F8CD
:103070004C90A76C29F000430B934FF0FF32A64B06
:103080000B99384603F070FB002840F0F7814FF0B1
:10309000FF32A14B0B99384603F048FB002840F063
:1030A000ED81002200233846494603F035FB10B17C
:1030B0002D2384F84330994B994FB8F1470F98BFAF
:1030C0001F46032323612AF0040323604FF0000905
:1030D00000965B460FAA2146284600F0DFF9013032
:1030E00040F09A804FF0FF3011B0BDE8F08F626879
:1030F000531C0EA84AF480630DF1340E41D1062210
:103100006260236000210DF1330201936368059032
:10311000029200933A464B460691CDF81080CDF8C6
:103120000CE02846FFF7F0FE08F0DF03472B0746C8
:1031300009D10D9BD81C02DB6268934259DDA8F1CE
:1031400002085FFA88F8B8F1650F0D9936D8013991
:10315000424604F150000D91FFF732FF0E9A83189A
:10316000012A8146236102DC2268D10701D501339F
:1031700023619DF83330002BAAD02D2384F84330EF
:10318000A6E7B8F1670F02D0B8F1470FB9D19AB1ED
:10319000002106910DF133018DE80C0023600590AC
:1031A0003A46CDF81080CDF80CE002914B46284607
:1031B000FFF7AAFE0746BCE70122A1E7B8F1660FB8
:1031C00019D1002963680CDD216113B92268D20787
:1031D00002D501330B4423610D9BA3654FF0000919
:1031E000C7E713B92268D00701D50233F3E70123FB
:1031F000F1E74FF067080D9B0E9A934205DB2268BA
:103200002361D107E8D50133E5E7002BD4BFC3F133
:10321000020301231344DEE723685A0507D4236918
:103220003A4659462846B04701302AD15AE7B8F104
:10323000650F40F2DC8000220023D4E9120103F084
:1032400061FA002839D00123364A59462846B0474A
:1032500001303FF447AF0E9B0D9A9A4202DB236880
:10326000D8070ED50A9B099A59462846B04701301F
:103270003FF438AF002704F11A080E9B013B9F4230
:1032800011DB23689F0708D5002704F11908E368BC
:103290000F9A9B1A9F42C0F2E780E0680F9B98420A
:1032A000B8BF184620E70123424659462846B04792
:1032B00001303FF417AF0137DFE70D9B002B33DC04
:1032C0000123184A59462846B04701303FF40AAF57
:1032D0000D9B23B90E9B13B92368D907D1D50A9B3F
:1032E000099A59462846B04701303FF4FBAE4FF0EB
:1032F000000804F11A090D9B5B42984501DB0E9B07
:103300008EE701234A4659462846B04701303FF42C
:10331000E9AE08F10108EEE7FFFFEF7FFC6B40002C
:10332000006C4000726D40000E9AA36D9A42A8BFD7
:103330001A46002A904636DC04F11A034FF0000AC0
:1033400028EAE8780B93D4F85890A9EB08039A453B
:1033500031DB0E9B0D9A9A4238DB2368DA0735D4AD
:103360000E9B0D99A3EB0902A3EB01089045A8BFA2
:103370009046B8F1000F31DC002728EAE87804F124
:103380001A090D9A0E9B9B1AA3EB08039F42BFF6E6
:1033900078AF01234A4659462846B04701303FF4EA
:1033A000A1AE0137EDE7134659463A462846B047E5
:1033B0000130C1D196E601230B9A59462846B04701
:1033C00001303FF48FAE0AF1010ABCE70A9B099A6B
:1033D00059462846B0470130C2D183E6434607EB41
:1033E000090259462846B0470130C5D17AE60E9AFF
:1033F000012A01DCDB0734D501233A465946284629
:10340000B04701303FF46EAE0A9B099A59462846F0
:10341000B04701303FF466AE00220023D4E9120128
:1034200003F070F950B1002704F11A080E9B013B1C
:103430009F420CDB4B4604F15002F2E60E9B7A1CD5
:10344000013B59462846B0470130F3D14AE60123F3
:10345000424659462846B04701303FF443AE013753
:10346000E4E701233A46ECE7012342465946284661
:10347000B04701303FF436AE013708E73A464B46D5
:103480003846494603F070F900283FF430AE014B4E
:10349000014F12E6046C4000086C40002DE9F04733
:1034A00091461F468A680B69DDF820809342B8BFB9
:1034B0001346C9F8003091F8432006460C4612B175
:1034C0000133C9F800302368990642BFD9F80030AB
:1034D0000233C9F80030256815F0060507D104F15C
:1034E000190AE368D9F800209B1A9D4229DB94F859
:1034F00043302268003318BF012392062ED404F112
:10350000430239463046C047013021D02368E56880
:10351000D9F8002003F00603042B08BFAD1AA368F6
:1035200022690CBF25EAE57500259342C4BF9B1AAA
:10353000ED184FF000091A344D451BD10020BDE8AD
:10354000F0870123524639463046C047013003D147
:103550004FF0FF30BDE8F0870135C2E7E1185A1C93
:10356000302081F84300224494F8451082F843103B
:103570000233C4E70123224639463046C0470130B2
:10358000E6D009F10109D7E72DE9F04317460A7E95
:1035900085B06E2A984606460C460C9B01F1430EF8
:1035A00000F0BC801AD8632A2ED00AD8002A00F076
:1035B000C880582A00F08A8004F1420584F842202D
:1035C0002AE0642A01D0692AF6D121681A6811F02C
:1035D000800F23D0111D1960136827E0732A00F0B3
:1035E000B48008D86F2A2AD0702AE5D10A6842F040
:1035F00020020A6003E0752A21D0782ADCD17822E3
:1036000084F845206E4964E01A6801F14205111DF5
:103610001960136884F842300123A3E011F0400FD1
:1036200002F104011960D7D0B2F90030002B03DA9F
:103630002D225B4284F8432062490A2217E0206869
:10364000196810F0800F03D0081D18600B6806E0A1
:1036500010F0400F01F104001860F7D00B885949B1
:103660006F2A14BF0A220822002084F843006568EC
:10367000A560002DC0F29C80206820F0040020602E
:10368000002B3FD1002D40F095807546082A0BD1C4
:103690002368DA0708D5236962689A42DEBF3023BF
:1036A00005F8013C05F1FF35AEEB05032361CDF8CC
:1036B00000803B4603AA21463046FFF7EFFE01306B
:1036C00055D14FF0FF3005B0BDE8F08381F84520BB
:1036D0003C492268186812F0800F00F104051D6053
:1036E00001D0036802E05506FBD50388D00744BF2C
:1036F00042F0200222601BB9226822F020022260E0
:103700001022B1E77546B3FBF2F002FB1033CB5C3D
:1037100005F8013D03460028F5D1B7E708681A68A7
:10372000496910F0800F04D0101D186013681960EB
:1037300007E010F0400F02F1040018601368F6D0A3
:103740001980002323617546B1E71A68111D1960BD
:10375000156862680021284601F08AF808B1401B0C
:10376000606063682361002384F843309FE7236926
:103770002A4639463046C0470130A2D023689B070D
:1037800007D5002504F11909E368039A9B1A9D42A5
:1037900005DBE068039B9842B8BF184693E7012316
:1037A0004A4639463046C04701308AD00135EBE7FA
:1037B000002BA7D10B7884F8423004F1420565E76D
:1037C0001D6C40000C6C40000FB40A4B13B51C6814
:1037D00024B1A36913B92046FFF70CFA05AB049A8C
:1037E000A1680193204601F09BFB02B0BDE81040A8
:1037F00004B070479C00002038B5064C00230546F5
:1038000008462360FDF718FF431C02D1236803B16B
:103810002B6038BD240400200FB40A4B13B51C687C
:1038200024B1A36913B92046FFF7E4F905AB049A64
:1038300061680193204601F0DDFD02B0BDE8104053
:1038400004B070479C00002000294FF480630CBF37
:103850000222002200F000B82DE9F7431D46514B2B
:103860001E6804460F46904626B1B36913B9304628
:10387000FFF7C0F94C4B9C4252D17468B8F1020F6B
:1038800006D0B8F1010F00F28980002DC0F28680C9
:1038900021463046FFF732F9616B41B104F1440330
:1038A000994202D03046FFF783FA00236363002376
:1038B000A3616360A3891B0603D521693046FFF726
:1038C00077FAA38923F44A6323F00303B8F1020FC4
:1038D000A3815DD001AB6A462146304600F056FF19
:1038E000A3891843A0812DBB009D284600F0B2FF9C
:1038F000074600284ED1DDF80090A9453CD14FF095
:10390000FF30A38943F00203A3810023A36004F1E5
:103910004703236023610123636103B0BDE8F083A3
:10392000224B9C4201D1B468A8E7214B9C4208BFBE
:10393000F468A3E7002FD8D0B36913B93046FFF776
:1039400059F9B8F1010F08BFA389276004BF43F0FC
:103950000103A381A389276113F0080065611BD0CF
:1039600013F0010018BF6D424FF000031DBFA360AC
:10397000A5611846A560D0E7484600F06BFF0746F2
:103980000028BCD0A38943F08003A3814D46D3E730
:103990000020B6E7A946F5E7A060BEE74FF0FF308C
:1039A000BBE700BF9C000020B86B4000D86B400014
:1039B000986B400010B50C46B1F90E1001F09AFE5C
:1039C0000028ABBF636DA3891B1823F48053ACBFE1
:1039D0006365A38110BD2DE9F0411F468B89DB058E
:1039E00005460C46164605D502230022B1F90E10F5
:1039F00000F0BAFEA389B4F90E1023F48053A3811A
:103A000032463B462846BDE8F04100F01FB810B5ED
:103A10000C46B1F90E1000F0A7FE431CA38915BF98
:103A2000606523F4805343F48053A38118BFA381BE
:103A300010BDB1F90E1000F01BB8034613F8012BAE
:103A4000002AFBD1181A01387047000038B5074C1E
:103A5000054608461146002222601A46FCF732FF4E
:103A6000431C02D1236803B12B6038BD240400201D
:103A700038B5064C0023054608462360FDF7F8FDDF
:103A8000431C02D1236803B12B6038BD24040020FD
:103A90002DE9F74F03690C699C42804600F3828050
:103AA000013C01F114074FEA840E00F1140657F8A7
:103AB000245056F8240006EB0E03013507EB0E09DF
:103AC0000193B0FBF5F595B34FF0000A3846B446C4
:103AD000D34650F8042B93B205FB03A34FEA134AD5
:103AE0009BB2ABEB0303120CBCF800B005FB02A2C7
:103AF00013FA8BF34FEA124A1FFA82FBDCF800201C
:103B0000CBEB124202EB23429BB243EA02438145D4
:103B10004FEA224B4CF8043BDBD256F80E3033B957
:103B2000019B043B9E421A4630D3C8F810404046E1
:103B300001F0F9F8002825DB013530464FF0000E82
:103B400057F8042BD0F800C093B2AEEB0303120C6D
:103B500013FA8CF3C2EB1C4202EB23429BB243EA02
:103B60000243B9454FEA224E40F8043BE8D256F8EA
:103B7000242006EB84032AB9043B9E421A460BD349
:103B8000C8F81040284603B0BDE8F08F1268043B27
:103B9000002ACAD1013CC5E71268043B002AEFD1D4
:103BA000013CEAE70020EEE72DE9F04F466A95B0C8
:103BB0000446219DCDE902233EB9102000F04AFEC3
:103BC0006062466086600660C660636A196851B1CB
:103BD0005A684A60012393408B60204600F0CEFE75
:103BE000636A00221A60039B002BBFBF01232B6076
:103BF000039B23F00043B2BF039300232B60DDF847
:103C00000C90A94B33EA09031BD1209A42F20F739F
:103C10001360029B23B9C9F31300002800F08185CB
:103C2000229B53B9A14B21E0A14B06930833229A62
:103C30001360069815B0BDE8F08F9C4B06930333D4
:103C4000F5E7DDE90267002200233046394602F03D
:103C500059FD804660B1209A01231360229B002BFE
:103C600000F05C85934B229A1360013B0693E0E7DA
:103C700012AB019313AB009332463B46204601F052
:103C8000CAF8C9F30A558246002D7CD0C7F3130346
:103C900043F07F51304641F44011A5F2FF35CDF895
:103CA00040800022844B02F011F979A3D3E900236C
:103CB00002F0C0FA78A3D3E9002302F009F906461E
:103CC00028460F4602F050FA75A3D3E9002302F00C
:103CD000B1FA02460B463046394602F0F9F806467C
:103CE0000F4602F057FD0022834600233046394636
:103CF00002F012FD58B1584602F036FA02460B4661
:103D00003046394602F0FEFC08B90BF1FF3BBBF12F
:103D1000160F57D8694901EBCB01DDE90223D1E940
:103D2000000102F017FD00284ED00BF1FF3B0023ED
:103D30000D93129B5D1B6B1E079343BF0023C5F1C0
:103D4000010807934FF00008BBF1000F3EDB079B13
:103D5000CDF830B05B440793002308931E9B092BDA
:103D600000F2B080052BC4BF043B1E931E9BA3F141
:103D70000203CCBF00260126032B00F2AF80DFE850
:103D800003F083852D77139B129D1D4405F232436A
:103D9000202B11DD029A05F21240C3F1400322FAF2
:103DA00000F009FA03F3184302F0CEF90123A1F160
:103DB000F871013D109374E7C3F12000029B03FAF0
:103DC00000F0F1E70123B3E70D90B2E7CBF1000378
:103DD00008930023A8EB0B080C93BFE7012309937A
:103DE0001F9B002B7DDD04939946656A00226A6063
:103DF000042101F114029A4278D96968204600F042
:103E000089FD636A28601B680693B9F10E0F00F202
:103E1000EE80002E00F0EB80DDE90223BBF1000F05
:103E2000CDE90E2377DD254A0BF00F0302EBC30328
:103E3000D3E900234FEA2B16F006CDE90A235AD521
:103E40001F4BDDE90E01D3E9082302F01DFBCDE98C
:103E5000020106F00F060325194F002E4DD1DDE9B2
:103E60000A23DDE9020102F00FFBCDE902016CE05B
:103E7000012309931F9B5B4403F1010904934B4603
:103E8000012BB8BF0123B0E70023A8E70023F0E728
:103E900061436F63A787D23FB3C8608B288AC63F50
:103EA000FB799F501344D33F0000F07F376C4000F4
:103EB0002E6C4000736D40000000F83F686C4000BD
:103EC000406C4000012600231E9309964FF0FF33FB
:103ED00004939946002212231F9286E70123099337
:103EE000F4E70123049399461A46F5E76A6801321C
:103EF0006A6049007DE70225AEE7F10708D5DDE9F4
:103F00000A01D7E9002302F095F9CDE90A0101354C
:103F100076100837A1E700F0A580CBF10006A34B8F
:103F2000A34F06F00F0203EBC203D3E90023DDE940
:103F30000E0102F07FF9CDE90201361100230225BE
:103F4000002E40F08480002B8FD10D9B002B00F0C1
:103F50008B80DDE90223CDE90A23DDE90A01002295
:103F6000944B02F0D9FB00287ED0B9F1000F7BD032
:103F7000049B002B37DD00228F4BDDE90A0102F0A4
:103F800059F9CDE90201049E0BF1FF3701352846AE
:103F900002F0EAF8DDE9022302F04CF9874B002237
:103FA00001F096FFCDE90A010B9BA3F150750B952B
:103FB000002E5CD10022824BDDE9020101F086FF78
:103FC0000A9A2B46CDE9020102F0C4FB002840F01A
:103FD000F7820A9A05F10043DDE9020102F09CFB39
:103FE000002840F0EB82DDE90E23CDE90223139B8C
:103FF000002BC0F25181BBF10E0F00F34D816B4BD2
:1040000003EBCB03D3E90023CDE904231F9B002B53
:1040100080F2DA80B9F1000F00F3D68040F0CD8253
:104020000022674BDDE9040102F004F9DDE9022317
:1040300002F086FB4E464F46002840F0A482069BC5
:10404000069A5D1C312313700BF1010B9FE2F207FE
:1040500005D5D7E9002302F0EDF8013501237610EC
:1040600008376DE7022570E75F464E468FE7069AF0
:104070004E4B32441192099A711E002A48D003EB2C
:10408000C103D3E9002300204E4902F0FDF9DDE928
:104090000A2301F01BFFCDE90A01069DDDE90201BB
:1040A00002F078FB064602F05FF802460B46DDE9B7
:1040B000020101F00BFF303605F8016BDDE90A2340
:1040C000CDE9020102F028FB002865D1DDE90223D9
:1040D0000020384901F0FAFEDDE90A2302F01CFB5A
:1040E000002840F0B980119B9D423FF47CAF002234
:1040F000314BDDE90A0102F09DF80022CDE90A0109
:104100002D4BDDE9020102F095F8CDE90201C5E78A
:1041100003EBC101D1E90001DDE90A2302F08AF8CD
:10412000CDE90A01069DDDE9020102F033FB0646F6
:1041300002F01AF8303602460B46DDE9020101F0C2
:10414000C5FE05F8016B119BAB42CDE902014FF0B2
:10415000000225D11B4BDDE90A0101F0B9FE024640
:104160000B46DDE9020102F0F5FA002874D1DDE921
:104170000A230020134901F0A9FE02460B46DDE99F
:10418000020102F0C9FA00283FF42DAF15F8013CF6
:10419000302B05F1FF3201D0BB464CE01546F5E768
:1041A000054B02F047F8CDE90201BCE7686C40001E
:1041B000406C40000000F03F0000244000001C4024
:1041C000000014400000E03FDDE90267069DDDE9E4
:1041D00004233046394602F057F902F0DBFA8046F4
:1041E00001F0C2FFDDE9042302F024F802460B4689
:1041F0003046394608F1300601F068FE05F8016BDB
:10420000069EAE1BB14502460B4638D101F060FE5A
:1042100006460F4602460B46DDE9040102F07CFA31
:10422000C8B932463B46DDE9040102F06BFA10B131
:1042300018F0010F0FD15146204600F09FFB0023DC
:10424000209A2B700BF101031360229B002B3FF48B
:10425000F0AC1D60EDE45F4615F8012C392A05F13C
:10426000FF3306D1069A9A4207D1302313700137E3
:1042700013461A7801321A708EE71D46ECE70022C9
:10428000B44B01F0D7FF0022002306460F4602F090
:1042900039FA00289BD0CEE7099A002A00F029813C
:1042A0001E9A012A00F30E81109A002A00F006815E
:1042B00003F23343089E4546079A01211A442046DB
:1042C0009844079200F0FAFB0746002D0BDD079B90
:1042D000002B08DDAB42079AA8BF2B46A8EB0308CA
:1042E000ED1AD31A0793089BFBB1099B002B00F032
:1042F0000481002E11DD39463246204600F074FC60
:10430000524601460746204600F0E1FB51460A901E
:10431000204600F033FB0A9B9A46089B9A1B04D068
:104320005146204600F060FC82460121204600F004
:10433000C5FB0C9B002B064640F3E1801A46014664
:10434000204600F051FC1E9B012B064640F3DA800C
:1043500000230893336906EB8303186900F060FBC0
:10436000C0F12000079B184410F01F0000F0F080FF
:10437000C0F12003042B40F3E280079BC0F11C0036
:104380008044054403440793B8F1000F05DD51460E
:104390004246204600F076FC8246079B002B05DD56
:1043A00031461A46204600F06DFC06460D9B002B58
:1043B00000F0D2803146504600F0B5FC002880F273
:1043C000CB80002351460A22204600F0EEFA099BDA
:1043D0000BF1FF3B8246002B00F0AA8100233946F7
:1043E0000A22204600F0E1FA049B002B074603DC7A
:1043F0001E9B022B00F3B880002D05DD39462A46AE
:10440000204600F03FFC0746089B002B00F010817F
:104410007968204600F07EFA3A6902320546920039
:1044200007F10C010C30FEF7AFFC012229462046B3
:1044300000F028FC029BDDF81880079703F00103C9
:104440000746089331465046FFF722FB0799054679
:1044500000F13009504600F066FC3A4602903146C1
:10446000204600F07AFCC3680246002B40F0E28050
:1044700001460990504600F056FC099A0346114641
:104480002046099300F07AFA099B002B40F0D48073
:104490001E9A002A40F0D080089A002A40F0CC8072
:1044A000B9F1390F00F0E880029B002B01DD05F126
:1044B000310908F1010588F800906AE0129BC3F108
:1044C0003603F7E6089B09F1FF36B342BFBF089BEE
:1044D0000896F21A0C9BB7BF9B189E1B0C930026E4
:1044E000B9F1000FB9BFA8EB0905002345464B46BB
:1044F000E2E6089E099F4546E7E6089A10E71E9BFC
:10450000012B18DC029BB3B9039BC3F31303A3B9BC
:10451000039B23F000431B0D1B052BB1079B0133AD
:10452000079308F10108012308930C9B002B7FF4EB
:1045300011AF012016E70023F6E7029BF4E73FF4F2
:1045400023AF079A1C331A4498441D4413461AE7B4
:104550000346F6E700002440B9F1000F33DC1E9B50
:10456000022B30DDCDF81090049B63B93146052253
:10457000204600F01AFA01460646504600F0D3FBEA
:1045800000283FF75CAD1F9B069D6FEA030B0023DD
:1045900007933146204600F0F1F9002F3FF44BAE6F
:1045A000079B2BB1BB4203D01946204600F0E6F929
:1045B0003946204600F0E2F93DE600263746E2E7BC
:1045C000BB4637463BE5099BCDF81090002B7FF4A6
:1045D00013AF069D31465046FFF75AFA00F13009F5
:1045E00005F8019B069B049AEB1A9A4200F383801C
:1045F000069B012AACBF9B18013398460023079302
:1046000051460122204600F03DFB3146824600F033
:104610008AFB002835DC02D119F0010F31D1454663
:1046200015F8013C302B05F1FF32B2D11546F7E702
:104630003846FFE6012322E7029A002A04DB29D14B
:104640001E9A3ABB089A2ABB002B7FF732AF51461D
:104650000122204600F016FB3146824600F063FB43
:10466000002805DC7FF425AF19F0010F3FF421AFDE
:10467000B9F1390F7FF41BAF392388F8003008F106
:104680000108454615F8013C392B05F1FF323AD0B7
:1046900001333FE0002B08F1010505DDB9F1390FC9
:1046A000EAD009F1010906E7069B049A05F8019C86
:1046B000EB1A9342A846A3D0514600230A22204673
:1046C00000F073F9079B0799BB4282464FF0000345
:1046D0004FF00A02204604D100F067F90790074620
:1046E000B0E600F062F9002307900A22394620461E
:1046F00000F05BF9F3E7514600230A22204600F060
:1047000054F9824666E7069B934205D1069A0BF15F
:10471000010B312313703CE71546B3E7094BFFF754
:10472000A5BA229B002B7FF47FAA074BFFF79EBA06
:10473000049B002B3FF74DAF1E9B022B7FF749AF29
:1047400012E700BF726D40002E6C4000044B1B68E6
:10475000186A044B002808BF1846F030704700BFA5
:104760009C0000200001002038B5074C0546084693
:104770001146002222601A46FCF784FF431C02D136
:10478000236803B12B6038BD2404002070B50E46A9
:10479000B1F90E10002990B014461D4607DA002327
:1047A0002B60B3891A0610D44FF480630EE001AA7F
:1047B00001F006FB0028F2DB029A02F47042A2F537
:1047C00000535A425A412A60EEE7402300202360FA
:1047D00010B070BD8B8973B59D0706460C4607D592
:1047E00004F14703236023610123636102B070BDBC
:1047F00001AB6A46FFF7CAFF009905463046FEF74F
:1048000025FB48B9B4F90C309A05EFD423F0030323
:1048100043F00203A381E3E70D4BB362A389206059
:1048200043F08003A381009B6361019B20615BB126
:10483000B4F90E10304601F0D5FA28B1A38923F05F
:10484000030343F00103A381A3891D43A581CDE7A1
:10485000752B4000024B01461868FEF7F7BA00BFFF
:104860009C0000200000000000000000000000008C
:1048700001F0FF01102A2BDB10F0070F08D010F811
:10488000013B013A8B422DD010F0070F42B3F6D115
:10489000F0B441EA012141EA014122F007047FF02E
:1048A00000070023F0E80256083C85EA010586EA85
:1048B000010685FA47F5A3FA87F586FA47F6A5FAC1
:1048C00087F68EB9EED1F0BC01F0FF0102F00702CD
:1048D00032B110F8013B013A83EA010313B1F8D178
:1048E0000020704701387047002D06BF3546033859
:1048F000073815F0010F07D1013015F4807F02BF92
:10490000013015F4C03F0130F0BC0138704700BFE2
:104910007047704770B5456A04460E463DB9102091
:10492000FFF798FF6062456085600560C560656A55
:10493000EB6883B1636ADB6853F82600B8B90121DC
:1049400001FA06F56A1D9200204600F0B3FA60B144
:10495000466085600EE021220421204600F0AAFA7C
:10496000636AE860DB68002BE4D1002070BD026858
:1049700043F8262000230361C36070BD70B5446A0C
:1049800006460D463CB91020FFF764FF7062446094
:1049900084600460C4603DB1736A6A68DB6853F880
:1049A0002210296043F8225070BD2DE9F0410D69B5
:1049B0001F4606460C4601F1140E0023DEF80000E7
:1049C00081B202FB01710F0C000C02FB007089B276
:1049D000013301EB00419D424FEA10474EF8041BA2
:1049E000ECDCD7B1A3689D4212DB6168304601312F
:1049F000FFF790FF2269023204F10C018046920019
:104A00000C30FEF7C1F921463046FFF7B7FF4446A8
:104A100004EB850301355F6125612046BDE8F08127
:104A2000020C12040346B2B90304102013F07F4FA6
:104A300004BF1B02083013F0704F04BF1B01043089
:104A400013F0404F04BF9B000230002B06DB5B00DD
:104A500003D5013070470020E8E720207047036845
:104A600013F0070201460BD0DA0723D4980749BF99
:104A70005B089B0801200B605CBF0B600220704745
:104A800098B2A8B91B0C102013F0FF0F04BF1B0A2B
:104A900008301A0704BF1B0904309A0704BF9B089B
:104AA0000230DA0702D45B0806D001300B60704791
:104AB0001046E9E7002070472020704710B50C46EB
:104AC0000121FFF727FF01224461026110BD2DE99A
:104AD000F74F14460A6923699A42B8BF0B468946C4
:104AE000BCBFA1461C46D9F81070D4F810A0D9F864
:104AF0000830D9F8041007EB0A069E42C8BF0131FE
:104B0000FFF708FF00F1140505EB86082B4600228D
:104B1000434516D304F1140209F1140102EB8A0390
:104B200001EB87070193019C944213460CD8002E99
:104B300003DD58F8043D002B54D0066103B0BDE8F6
:104B4000F08F43F8042BE3E7B3F800A00432BAF186
:104B5000000F20D0AE4689464FF0000C59F8044BA8
:104B6000BEF800B0A3B20AFB03B34FEA144BDEF861
:104B7000004063444FEA144C0AFB0BC404EB13449B
:104B80009BB243EA04434F454FEA144C4EF8043BB2
:104B9000E4D8CEF800C032F8029CB9F1000F1FD063
:104BA0002B68AE468C464FF0000ABCF80040BEF8B9
:104BB00002B009FB04B4A2449BB243EA0A434EF894
:104BC000043B5CF8043BBEF800401B0C09FB0343AC
:104BD00003EB1A4367454FEA134AE6D8CEF8003094
:104BE0000435A0E7013EA2E72DE9F843154612F08F
:104BF000030206460F4607D0013A214C002354F821
:104C00002220FFF7D2FE0746AD1035D0746A3CB9BA
:104C10001020FFF71FFE7062446084600460C4606F
:104C2000D6F82480D8F808404CB940F271213046BB
:104C3000FFF744FF0023C8F80800044603604FF064
:104C40000008EB070AD5394622463046FFF73FFFFA
:104C5000394681463046FFF791FE4F466D100BD026
:104C6000206838B9224621463046FFF730FF2060E1
:104C7000C0F800800446E4E73846BDE8F88300BF8A
:104C8000306D40002DE9F0470C464FEA621A236967
:104C900049680AEB0309A3680746164609F10105AE
:104CA000AB4231DB3846FFF735FE0022804600F18B
:104CB0001403114652452ADB20692AEAEA7A04F1F4
:104CC000140116F01F0203EB8A0301EB800E22D0C1
:104CD000C2F1200C00200E689640304343F8040BCC
:104CE00051F8040B8E4520FA0CF0F4D8186008B186
:104CF00009F10205013D3846C8F810502146FFF77A
:104D00003DFE4046BDE8F08701315B00C8E743F84F
:104D100022100132CEE7043B51F8042B43F8042F54
:104D20008E45F9D8E6E703690A699B1A30B50CD1BC
:104D30009200143014318418114454F8045D51F871
:104D4000042D954203D005D30123184630BDA0425F
:104D5000F3D3FAE74FF0FF33F7E72DE9F0470D46BD
:104D60000746114628461446FFF7DDFF061E08D108
:104D700031463846FFF7CEFD012303614661BDE8A9
:104D8000F087A4BF23462C4638466168A6BF1D465F
:104D900000260126FFF7BEFD2B69C660266905F1D6
:104DA000140904F1140202EB860709EB830800F1F1
:104DB00014054FF0000C52F804AB59F8044B1CFAE0
:104DC0008AF1A3B2C91A230CC3EB1A4303EB2143A4
:104DD00089B24FEA234CC84541EA0343964645F859
:104DE000043BE8D8BE4505D355F8043D8BB10661B8
:104DF000BDE8F0875EF8041B1CFA81F31A1402EB7D
:104E000011429BB243EA02434FEA224C45F8043B6D
:104E1000E8E7013EE8E72DE9F34101211C46904611
:104E2000089E099DFFF776FDC4F31302C4F30A54EC
:104E3000074634BB0192B8F1000F27D002A840F812
:104E4000088DFFF70CFE0099F0B1019AC0F1200324
:104E500002FA03F30B43C2407B610192019BBB61E9
:104E6000002B14BF022101213961C4B1A4F23344E3
:104E700004443460C0F135002860384602B0BDE813
:104E8000F08142F48012D5E77961E7E701A8FFF7E6
:104E9000E6FD019B7B61012139612030E5E707EBED
:104EA0008103A0F2324030601869FFF7B9FDC0EB12
:104EB0004110E1E738B502FB01F42146FDF7C6FFDA
:104EC000054618B122460021FDF769FF284638BD86
:104ED0009368013B002B10B4936008DA9469A342F5
:104EE00002DBCBB20A2B02D110BC00F0A9BE1368C2
:104EF000581C10601970C8B210BC7047F8B506464F
:104F00000F461446D518AC4201D1002007E03A46BE
:104F100014F8011B3046FFF7DBFF431CF3D1F8BD4B
:104F20002DE9F04F9DB00C4617460393064618B185
:104F300083690BB9FDF75EFE7C4B9C4257D17468C8
:104F4000A38918075DD52369002B5AD00023099344
:104F500020238DF8293030238DF82A304FF0010BB3
:104F6000B846454615F8013B002B55D1B8EB070A6A
:104F70000BD053463A4621463046FFF7BFFF01307B
:104F800000F0C480099B5344099398F80030002B2B
:104F900000F0BC8000234FF0FF320493079305928A
:104FA00006938DF853301A93052229786048FFF74D
:104FB0005FFC05F10108049B002831D1D90644BFEC
:104FC00020228DF853201A0744BF2B228DF853203E
:104FD0002A782A2A2CD0079A00210A20A8460135CF
:104FE00098F80030303B092B6DD971B326E0514B56
:104FF0009C4201D1B468A3E74F4B9C4208BFF468C0
:105000009EE72146304600F06DFE00289ED04FF00E
:10501000FF301DB0BDE8F08F252BA7D0A846A0E734
:10502000434A801A0BFA00F0184304904546BBE748
:10503000039A111D12680391002A01DB079204E014
:10504000524243F002030792049398F800302E2B4B
:1050500010D198F801302A2B08F1010137D1039BB8
:105060001A1D1B680392002BB8BF4FF0FF3308F1E5
:1050700002080593314D98F8001003222846FFF7E7
:10508000F7FB40B14023401B03FA00F0049B0343AD
:10509000049308F1010898F8001029488DF82810A9
:1050A000062208F10107FFF7E3FB002834D0254B67
:1050B00003BB039B073323F0070308330393099BC8
:1050C0004B4409934CE700FB0232012186E70023A1
:1050D000059318460A258846013198F80020303A91
:1050E000092A03D9002BC5D00590C3E705FB002092
:1050F0000123F0E703AB00932246134B04A930468B
:10510000FDF794FFB0F1FF3F8146D8D1A3895B063C
:105110003FF57DAF09987CE703AB009322460A4B2D
:1051200004A93046FEF730FAECE700BFB86B400048
:105130003C6D4000D86B4000986B4000426D4000D1
:10514000466D40002D304000FD4E40002DE9F04FEF
:10515000ADF5257D0DF10C0801930023469347938F
:10516000A04BA293DFF884929F4BCDF82081064696
:105170000C46A39392460A279AF80030002B00F0C1
:105180002F8100F043FE9AF800B05844437813F0A2
:10519000080343D1BBF1250F0AF1010540F09980C6
:1051A000459343939AF801302A2B03D1102343935C
:1051B0000AF102052978A1F13002092AAA4605F16F
:1051C000010541D903228948FFF752FB38B1A0EB12
:1051D000090301209840439B18434390AA469AF83C
:1051E0000030672B0AF101054AD8652B80F0B780A3
:1051F000472B2FD8452B80F0B280002B00F0828007
:10520000252B66D003234993449745E04799013104
:105210004791616801330139616023606368002B45
:105220000BDD00F0F3FD23681978084441780D0781
:10523000ECD40AF10105AA469EE7A39B214630461D
:1052400098470028EDD0F4E7459B07FB0313303B5C
:105250004593AFE75B2B61D00CD8582BD2D1439A42
:1052600042F400724392102244926F2BB4BF032386
:10527000042310E0632B5CD0642BC3D14497F4E784
:10528000702B42D01DD86E2B59D043D8692BB9D181
:1052900000234493032349936368002B61DD439B00
:1052A00059066FD5499B022B7CDC01AB224643A9F2
:1052B000304600F0C7F8012800F092800228BAD1E9
:1052C0001DE0752BDAD0782BC9D0732B9AD102232D
:1052D000E1E76368002B0CDD23681A7893457FD1E2
:1052E000013362682360479B013A01336260479350
:1052F000A1E7A39B2146304698470028ECD046986A
:10530000002863D14FF0FF3066E0439A42F020025C
:105310004392A4E7082344930423BCE7294640466C
:1053200000F08EFA439B43F040034393054601236C
:10533000B1E7439B43F0400343930023ABE7439A19
:10534000D0063FF578AF12F0010F019A479B02F1AA
:1053500004010191126814BF138013606BE70523E9
:1053600099E7A39B214630469847002897D0C6E787
:10537000479A013247926268013A002A62600ADD68
:105380000133236000F042FD23681A78104442780C
:105390001207EDD486E7A39B2146304698470028A4
:1053A000F0D0ACE7042B06DC01AB224643A9304623
:1053B00000F0ACF87FE70E4B002B3FF43CAF01ABA5
:1053C000224643A93046AFF3008074E7A38913F067
:1053D000400F18BF4FF0FF300DF5257DBDE8F08F71
:1053E0004698F9E75D5B40002D574000426D400054
:1053F000000000002DE9F0410C4616461F46054608
:1054000018B183690BB9FDF7F5FB0B4B9C4208D132
:105410006C683B46324621462846BDE8F041FFF71E
:1054200095BE064B9C4201D1AC68F2E7044B9C420E
:1054300008BFEC68EDE700BFB86B4000D86B4000D8
:10544000986B40002DE9F04115468A6880460C466D
:1054500032B98A69002A0CBF01224FF0FF328A60FC
:105460002268D1065FBF1A68111D196017680026EF
:10547000A369DBB1012B07D12B6862691B78D35C70
:10548000A3B9002E32D106E0022B07D0002E2DD179
:10549000A369012B2AD10120BDE8F08100F0B6FC00
:1054A0002B681B78184443781B07EFD42368DA066F
:1054B0005EBF2B681B783B702A686B6802F10102A3
:1054C0002A60A26803F1FF3302F1FF326B6006F13C
:1054D000010658BF0137A26042B1002BC8DCD4F8E6
:1054E00080312946404698470028C1D0236813F0F0
:1054F000100305D1E2680132E260A26902B13B709B
:1055000023691E4426610020BDE8F0812DE9F04F9B
:105510009A46744B0C468346164693E8070087B0BC
:1055200003ABA76883E807006F4BA1696F4A0329A3
:1055300018BF1A467B1EB3F5AE7F84BF40F25D13E1
:10554000A3602368009243F4506388BF6FF4AE7584
:1055500004F11C0923608CBF7F1900274B464FF0D4
:1055600000080193316803AB022253F82800097840
:10557000FFF77EF9019B28B3B8F1010F56D162689D
:105580002AB908226260226842F40072226022680E
:1055900022F4A0622260A268511EA16092B132681A
:1055A000511C316012781A705D1C7368013B002B2E
:1055B000736006DCD4F8803131465846984700289D
:1055C00076D12B4608F10108B8F1030FC9D1626802
:1055D0000AB90A2262606268454960690193891AC2
:1055E00000F02EF9019B4FF000081D46A368002B28
:1055F00038D0316860690A78805C002832D0302A5F
:10560000226821D110051FD508F1010817B1013317
:10561000013FA3607368013B002B73601BDD33689F
:1056200001333360A368013BA360DFE7B8F1020FE9
:10563000B1D1226802F4C061B1F5007FC2D110215E
:10564000616042F48072A5E722F4106222600B7858
:105650002B700135DEE7D4F8803131465846984743
:105660000028DFD02368D9050CD54D4508D915F899
:10567000011CD4F87C313246584698476F1E3D468F
:105680004D452CD0226812F010021ED12A7063689A
:10569000009E49465846B0472268DAF8003012F0BA
:1056A000200F08D01A1DCAF800201B68186009E0F6
:1056B0004FF00008D6E7D207F4D51A1DCAF800202B
:1056C0001B681880E3680133E360A5EB0905A84473
:1056D000256945442561002007B0BDE8F08F012011
:1056E000FAE700BF506D4000C15A4000A159400088
:1056F0006C6D400038B5074C05460846114600223F
:1057000022601A46FBF7C0F8431C02D1236803B19C
:105710002B6038BD24040020838903F00903092B82
:1057200001D1FDF715BA002070470000F8B50C460E
:10573000054618B183690BB9FDF75CFA3B4B9C42F7
:105740000AD16C68B4F90C200023636093B29E0602
:105750000CD54FF0FF30F8BD354B9C4201D1AC6801
:10576000F0E7344B9C4208BFEC68EBE7580748D49D
:10577000D90605D4092342F040022B60A281E8E754
:105780001A070BD521462846FDF7B8F90028E0D1C5
:10579000A389A06023F00803A381A061A38943F03B
:1057A0000403A38123691BB921462846FFF712F899
:1057B000B4F90C70BEB2B3070FD00123A3811E4B06
:1057C0001E49186806F00906FDF780FA092EA78120
:1057D00003D121462846FDF709F922692260666A4D
:1057E0006369216A2846B047002860601CDCA389F1
:1057F00017BF002243F0200343F040036260A381FF
:10580000A7E7616B0029CDD004F14403994202D08F
:105810002846FDF7CDFA236C636000206063002BFF
:10582000C0D0E36B2360F8BD0020F8BDB86B40002A
:10583000D86B4000986B4000F86B4000195740004F
:1058400070B50B785E2B13BF4A1C8A1C4B78002165
:1058500008BF0121441E00F1FF0504F8011FA54205
:10586000FBD113B9013A104670BD81F00104C45454
:1058700011460D782D2D01F1010206D05D2DF2D0DB
:105880000DB90A46EFE72B46F1E74E785D2EFAD0C8
:10589000B342F8DC023101339E42C454FBDCE8E73A
:1058A0002DE9F84F8046894692461F468B465D4655
:1058B0000A9815F8014B00F0A5FA2044467816F036
:1058C00008060BD12D2C0BD12C7801260BF10205EB
:1058D00067B1102F14D1302C0AD011E0AB46E6E7A7
:1058E0002B2C04BF2C780BF10205F1E7302C27D1CB
:1058F0002B7803F0DF03582B4BD16C78102702353F
:10590000002E0CBF6FF000414FF000410022B1FBB0
:10591000F7FE104607FB1E1CA4F13003092B11D81B
:105920001C46A7421DDD531C07D0864516D301D166
:10593000A44513DB00FB0740012215F8014BEBE700
:105940000A27DDE7A4F14103192B01D8373CE8E72A
:10595000A4F16103192B04D8573CE2E74FF0FF3262
:10596000EBE7531C08D12223C8F800300846BAF1EF
:10597000000F07D1BDE8F88F06B14042BAF1000F21
:105980000CD022B1013DCAF80050BDE8F88F4D4659
:10599000F9E73024002FB3D10827B1E7BDE8F88F2D
:1059A00037B5064C064D2468246A002C08BF2C46E7
:1059B0000094FFF775FF03B030BD00BF9C000020CE
:1059C000000100202DE9F0478046894692461E4698
:1059D0000F463D46089815F8014B00F013FA204495
:1059E000437813F008030AD12D2C0AD12C78012317
:1059F000BD1C5EB1102E13D1302C09D010E02F4603
:105A0000E7E72B2C04BF2C78BD1CF2E7302C25D106
:105A10002A7802F0DF02582A4AD16C781026023523
:105A20004FF0FF310027B1FBF6F106FB01FE6FEAF4
:105A30000E0E3846A4F13002092A11D81446A642A7
:105A40001DDD002F18DB814216D301D1A64513DBE3
:105A500000FB0640012715F8014BEBE70A26DFE7BC
:105A6000A4F14102192A01D8373CE8E7A4F1610208
:105A7000192A04D8573CE2E74FF0FF37EBE7002F35
:105A800009DA2223C8F800304FF0FF30BAF1000FD6
:105A900007D1BDE8F08703B14042BAF1000F0CD046
:105AA00027B1013DCAF80050BDE8F0874D46F9E73F
:105AB0003024002EB4D10826B2E7BDE8F0870000FC
:105AC00037B5064C064D2468246A002C08BF2C46C6
:105AD0000094FFF777FF03B030BD00BF9C000020AB
